{
  "_format": "hh-sol-artifact-1",
  "contractName": "PrivacyMixerV2",
  "sourceName": "contracts/upgradeable/PrivacyMixerV2.sol",
  "abi": [
    {
      "inputs": [],
      "name": "InvalidInitialization",
      "type": "error"
    },
    {
      "inputs": [],
      "name": "NotInitializing",
      "type": "error"
    },
    {
      "inputs": [
        {
          "internalType": "address",
          "name": "owner",
          "type": "address"
        }
      ],
      "name": "OwnableInvalidOwner",
      "type": "error"
    },
    {
      "inputs": [
        {
          "internalType": "address",
          "name": "account",
          "type": "address"
        }
      ],
      "name": "OwnableUnauthorizedAccount",
      "type": "error"
    },
    {
      "anonymous": false,
      "inputs": [
        {
          "indexed": true,
          "internalType": "address",
          "name": "user",
          "type": "address"
        },
        {
          "indexed": true,
          "internalType": "address",
          "name": "generatedAddress",
          "type": "address"
        }
      ],
      "name": "AddressGenerated",
      "type": "event"
    },
    {
      "anonymous": false,
      "inputs": [
        {
          "indexed": true,
          "internalType": "address",
          "name": "user",
          "type": "address"
        },
        {
          "indexed": false,
          "internalType": "uint256",
          "name": "amount",
          "type": "uint256"
        },
        {
          "indexed": false,
          "internalType": "uint256",
          "name": "poolId",
          "type": "uint256"
        },
        {
          "indexed": false,
          "internalType": "uint256",
          "name": "timestamp",
          "type": "uint256"
        }
      ],
      "name": "Deposit",
      "type": "event"
    },
    {
      "anonymous": false,
      "inputs": [
        {
          "indexed": false,
          "internalType": "uint64",
          "name": "version",
          "type": "uint64"
        }
      ],
      "name": "Initialized",
      "type": "event"
    },
    {
      "anonymous": false,
      "inputs": [
        {
          "indexed": true,
          "internalType": "address",
          "name": "previousOwner",
          "type": "address"
        },
        {
          "indexed": true,
          "internalType": "address",
          "name": "newOwner",
          "type": "address"
        }
      ],
      "name": "OwnershipTransferred",
      "type": "event"
    },
    {
      "anonymous": false,
      "inputs": [
        {
          "indexed": false,
          "internalType": "address",
          "name": "account",
          "type": "address"
        }
      ],
      "name": "Paused",
      "type": "event"
    },
    {
      "anonymous": false,
      "inputs": [
        {
          "indexed": true,
          "internalType": "uint256",
          "name": "poolId",
          "type": "uint256"
        },
        {
          "indexed": false,
          "internalType": "uint256",
          "name": "lockDuration",
          "type": "uint256"
        },
        {
          "indexed": false,
          "internalType": "uint256",
          "name": "maxDeposit",
          "type": "uint256"
        }
      ],
      "name": "PoolCreated",
      "type": "event"
    },
    {
      "anonymous": false,
      "inputs": [
        {
          "indexed": false,
          "internalType": "address",
          "name": "account",
          "type": "address"
        }
      ],
      "name": "Unpaused",
      "type": "event"
    },
    {
      "anonymous": false,
      "inputs": [
        {
          "indexed": true,
          "internalType": "address",
          "name": "implementation",
          "type": "address"
        }
      ],
      "name": "Upgraded",
      "type": "event"
    },
    {
      "inputs": [
        {
          "internalType": "address",
          "name": "",
          "type": "address"
        }
      ],
      "name": "addressGenerated",
      "outputs": [
        {
          "internalType": "bool",
          "name": "",
          "type": "bool"
        }
      ],
      "stateMutability": "view",
      "type": "function"
    },
    {
      "inputs": [
        {
          "internalType": "address",
          "name": "user",
          "type": "address"
        }
      ],
      "name": "canWithdraw",
      "outputs": [
        {
          "internalType": "bool",
          "name": "",
          "type": "bool"
        }
      ],
      "stateMutability": "view",
      "type": "function"
    },
    {
      "inputs": [
        {
          "internalType": "uint256",
          "name": "poolId",
          "type": "uint256"
        }
      ],
      "name": "deposit",
      "outputs": [],
      "stateMutability": "payable",
      "type": "function"
    },
    {
      "inputs": [
        {
          "internalType": "address",
          "name": "",
          "type": "address"
        }
      ],
      "name": "depositTimestamps",
      "outputs": [
        {
          "internalType": "uint256",
          "name": "",
          "type": "uint256"
        }
      ],
      "stateMutability": "view",
      "type": "function"
    },
    {
      "inputs": [],
      "name": "emergencyPause",
      "outputs": [],
      "stateMutability": "nonpayable",
      "type": "function"
    },
    {
      "inputs": [],
      "name": "emergencyUnpause",
      "outputs": [],
      "stateMutability": "nonpayable",
      "type": "function"
    },
    {
      "inputs": [],
      "name": "generateAddress",
      "outputs": [
        {
          "internalType": "address",
          "name": "",
          "type": "address"
        }
      ],
      "stateMutability": "nonpayable",
      "type": "function"
    },
    {
      "inputs": [],
      "name": "getMyGeneratedAddress",
      "outputs": [
        {
          "internalType": "address",
          "name": "",
          "type": "address"
        }
      ],
      "stateMutability": "view",
      "type": "function"
    },
    {
      "inputs": [
        {
          "internalType": "uint256",
          "name": "poolId",
          "type": "uint256"
        }
      ],
      "name": "getPoolInfo",
      "outputs": [
        {
          "components": [
            {
              "internalType": "uint256",
              "name": "lockDuration",
              "type": "uint256"
            },
            {
              "internalType": "uint256",
              "name": "maxDeposit",
              "type": "uint256"
            },
            {
              "internalType": "uint256",
              "name": "feeRate",
              "type": "uint256"
            },
            {
              "internalType": "bool",
              "name": "active",
              "type": "bool"
            },
            {
              "internalType": "uint256",
              "name": "totalDeposits",
              "type": "uint256"
            }
          ],
          "internalType": "struct PrivacyMixerV2.Pool",
          "name": "",
          "type": "tuple"
        }
      ],
      "stateMutability": "view",
      "type": "function"
    },
    {
      "inputs": [
        {
          "internalType": "address",
          "name": "user",
          "type": "address"
        }
      ],
      "name": "getUserDepositInfo",
      "outputs": [
        {
          "internalType": "uint256",
          "name": "depositAmount",
          "type": "uint256"
        },
        {
          "internalType": "uint256",
          "name": "depositTime",
          "type": "uint256"
        },
        {
          "internalType": "bool",
          "name": "canWithdrawNow",
          "type": "bool"
        }
      ],
      "stateMutability": "view",
      "type": "function"
    },
    {
      "inputs": [],
      "name": "getVersion",
      "outputs": [
        {
          "internalType": "uint256",
          "name": "",
          "type": "uint256"
        }
      ],
      "stateMutability": "view",
      "type": "function"
    },
    {
      "inputs": [],
      "name": "initialize",
      "outputs": [],
      "stateMutability": "nonpayable",
      "type": "function"
    },
    {
      "inputs": [],
      "name": "initializeVersion",
      "outputs": [],
      "stateMutability": "nonpayable",
      "type": "function"
    },
    {
      "inputs": [],
      "name": "owner",
      "outputs": [
        {
          "internalType": "address",
          "name": "",
          "type": "address"
        }
      ],
      "stateMutability": "view",
      "type": "function"
    },
    {
      "inputs": [],
      "name": "paused",
      "outputs": [
        {
          "internalType": "bool",
          "name": "",
          "type": "bool"
        }
      ],
      "stateMutability": "view",
      "type": "function"
    },
    {
      "inputs": [
        {
          "internalType": "uint256",
          "name": "",
          "type": "uint256"
        }
      ],
      "name": "pools",
      "outputs": [
        {
          "internalType": "uint256",
          "name": "lockDuration",
          "type": "uint256"
        },
        {
          "internalType": "uint256",
          "name": "maxDeposit",
          "type": "uint256"
        },
        {
          "internalType": "uint256",
          "name": "feeRate",
          "type": "uint256"
        },
        {
          "internalType": "bool",
          "name": "active",
          "type": "bool"
        },
        {
          "internalType": "uint256",
          "name": "totalDeposits",
          "type": "uint256"
        }
      ],
      "stateMutability": "view",
      "type": "function"
    },
    {
      "inputs": [],
      "name": "renounceOwnership",
      "outputs": [],
      "stateMutability": "nonpayable",
      "type": "function"
    },
    {
      "inputs": [],
      "name": "totalPools",
      "outputs": [
        {
          "internalType": "uint256",
          "name": "",
          "type": "uint256"
        }
      ],
      "stateMutability": "view",
      "type": "function"
    },
    {
      "inputs": [
        {
          "internalType": "address",
          "name": "newOwner",
          "type": "address"
        }
      ],
      "name": "transferOwnership",
      "outputs": [],
      "stateMutability": "nonpayable",
      "type": "function"
    },
    {
      "inputs": [
        {
          "internalType": "address",
          "name": "",
          "type": "address"
        }
      ],
      "name": "userDeposits",
      "outputs": [
        {
          "internalType": "uint256",
          "name": "",
          "type": "uint256"
        }
      ],
      "stateMutability": "view",
      "type": "function"
    },
    {
      "inputs": [
        {
          "internalType": "address",
          "name": "",
          "type": "address"
        }
      ],
      "name": "userToGeneratedAddress",
      "outputs": [
        {
          "internalType": "address",
          "name": "",
          "type": "address"
        }
      ],
      "stateMutability": "view",
      "type": "function"
    },
    {
      "inputs": [],
      "name": "version",
      "outputs": [
        {
          "internalType": "uint256",
          "name": "",
          "type": "uint256"
        }
      ],
      "stateMutability": "view",
      "type": "function"
    },
    {
      "inputs": [
        {
          "internalType": "address",
          "name": "to",
          "type": "address"
        },
        {
          "internalType": "uint256",
          "name": "amount",
          "type": "uint256"
        }
      ],
      "name": "withdraw",
      "outputs": [],
      "stateMutability": "nonpayable",
      "type": "function"
    }
  ],
  "bytecode": "0x6080604052348015600f57600080fd5b506114c98061001f6000396000f3fe6080604052600436106101405760003560e01c8063715018a6116100b6578063b3a7834d1161006f578063b3a7834d14610427578063b6b55f2514610464578063c6eba76714610477578063ee649e15146104a7578063f2fde38b146104bc578063f3fef3a3146104dc57600080fd5b8063715018a6146102f95780638129fc1c1461030e57806382949221146103235780638da5cb5b14610359578063ab3c7e5214610396578063ac4afa38146103ac57600080fd5b80634830510111610108578063483051011461025b5780634a4e3bd514610272578063504860a01461028757806351858e27146102b457806354fd4d50146102c95780635c975abb146102df57600080fd5b80630ba36dcd146101455780630d8e6e2c1461018557806319262d301461019a578063240be944146101ca5780632f380b35146101f7575b600080fd5b34801561015157600080fd5b506101726101603660046112f3565b60026020526000908152604090205481565b6040519081526020015b60405180910390f35b34801561019157600080fd5b50600754610172565b3480156101a657600080fd5b506101ba6101b53660046112f3565b6104fc565b604051901515815260200161017c565b3480156101d657600080fd5b506101726101e53660046112f3565b60036020526000908152604090205481565b34801561020357600080fd5b50610217610212366004611315565b61050d565b60405161017c9190600060a0820190508251825260208301516020830152604083015160408301526060830151151560608301526080830151608083015292915050565b34801561026757600080fd5b506102706105da565b005b34801561027e57600080fd5b50610270610631565b34801561029357600080fd5b5061029c610679565b6040516001600160a01b03909116815260200161017c565b3480156102c057600080fd5b506102706106ec565b3480156102d557600080fd5b5061017260075481565b3480156102eb57600080fd5b506006546101ba9060ff1681565b34801561030557600080fd5b50610270610731565b34801561031a57600080fd5b50610270610745565b34801561032f57600080fd5b5061029c61033e3660046112f3565b6000602081905290815260409020546001600160a01b031681565b34801561036557600080fd5b507f9016d09d72d40fdae2fd8ceac6b6234c7706214fd39c1cd1e609a0528c199300546001600160a01b031661029c565b3480156103a257600080fd5b5061017260055481565b3480156103b857600080fd5b506103fd6103c7366004611315565b60046020819052600091825260409091208054600182015460028301546003840154939094015491939092909160ff9091169085565b6040805195865260208601949094529284019190915215156060830152608082015260a00161017c565b34801561043357600080fd5b506104476104423660046112f3565b610887565b60408051938452602084019290925215159082015260600161017c565b610270610472366004611315565b610919565b34801561048357600080fd5b506101ba6104923660046112f3565b60016020526000908152604090205460ff1681565b3480156104b357600080fd5b5061029c610ba3565b3480156104c857600080fd5b506102706104d73660046112f3565b610c0b565b3480156104e857600080fd5b506102706104f736600461132e565b610c49565b600061050782610ee6565b92915050565b6105416040518060a00160405280600081526020016000815260200160008152602001600015158152602001600081525090565b60055482106105895760405162461bcd60e51b815260206004820152600f60248201526e125b9d985b1a59081c1bdbdb081251608a1b60448201526064015b60405180910390fd5b50600090815260046020818152604092839020835160a08101855281548152600182015492810192909252600281015493820193909352600383015460ff1615156060820152910154608082015290565b6007541561062a5760405162461bcd60e51b815260206004820152601b60248201527f56657273696f6e20616c726561647920696e697469616c697a656400000000006044820152606401610580565b6002600755565b610639610f61565b6006805460ff191690556040513381527f5db9ee0a495bf2e6ff9c91a7834c1ba4fdd244a5e8aa4e537bd38aeae4b073aa906020015b60405180910390a1565b3360009081526001602052604081205460ff166106cf5760405162461bcd60e51b8152602060048201526014602482015273139bc81859191c995cdcc819d95b995c985d195960621b6044820152606401610580565b50336000908152602081905260409020546001600160a01b031690565b6106f4610f61565b6006805460ff191660011790556040513381527f62e78cea01bee320cd4e420270b5ea74000d11b0c9f74754ebdbfc544b05a2589060200161066f565b610739610f61565b6107436000610fbc565b565b600061074f61102d565b805490915060ff600160401b820416159067ffffffffffffffff166000811580156107775750825b905060008267ffffffffffffffff1660011480156107945750303b155b9050811580156107a2575080155b156107c05760405163f92ee8a960e01b815260040160405180910390fd5b845467ffffffffffffffff1916600117855583156107ea57845460ff60401b1916600160401b1785555b6107f333611056565b610808603c678ac7230489e80000600f611067565b61081e60f06802b5e3af16b1880000600f611067565b6108356105a068056bc75e2d63100000600f611067565b6002600755831561088057845460ff60401b19168555604051600181527fc7f505b2f371ae2175ee4913f4499e1f2633a7b5936321eed1cdaeb6115181d29060200160405180910390a15b5050505050565b6001600160a01b038116600081815260026020908152604080832054600390925280832054905163019262d360e41b81526004810194909452909290919030906319262d3090602401602060405180830381865afa1580156108ed573d6000803e3d6000fd5b505050506040513d601f19601f820116820180604052508101906109119190611358565b929491935050565b60065460ff16156109615760405162461bcd60e51b815260206004820152601260248201527110dbdb9d1c9858dd081a5cc81c185d5cd95960721b6044820152606401610580565b60055481106109a45760405162461bcd60e51b815260206004820152600f60248201526e125b9d985b1a59081c1bdbdb081251608a1b6044820152606401610580565b60008181526004602052604090206003015460ff166109f75760405162461bcd60e51b815260206004820152600f60248201526e506f6f6c206e6f742061637469766560881b6044820152606401610580565b67016345785d8a0000341015610a4f5760405162461bcd60e51b815260206004820152601760248201527f4d696e696d756d206465706f73697420302e31204554480000000000000000006044820152606401610580565b600081815260046020526040902060010154341115610aa65760405162461bcd60e51b8152602060048201526013602482015272115e18d959591cc81b585e0819195c1bdcda5d606a1b6044820152606401610580565b3360009081526001602052604090205460ff16610ac557610ac5611125565b6000818152600460205260408120600201546103e890610ae59034611390565b610aef91906113a7565b90506000610afd82346113c9565b33600090815260026020526040812080549293508392909190610b219084906113dc565b90915550503360009081526003602090815260408083204290558583526004918290528220018054839290610b579084906113dc565b909155505060408051828152602081018590524281830152905133917f36af321ec8d3c75236829c5317affd40ddb308863a1236d2d277a4025cccee1e919081900360600190a2505050565b3360009081526001602052604081205460ff1615610c035760405162461bcd60e51b815260206004820152601960248201527f4164647265737320616c72656164792067656e657261746564000000000000006044820152606401610580565b6106cf611125565b610c13610f61565b6001600160a01b038116610c3d57604051631e4fbdf760e01b815260006004820152602401610580565b610c4681610fbc565b50565b60065460ff1615610c915760405162461bcd60e51b815260206004820152601260248201527110dbdb9d1c9858dd081a5cc81c185d5cd95960721b6044820152606401610580565b3360009081526001602052604090205460ff16610ce75760405162461bcd60e51b81526020600482015260146024820152734e6f2067656e657261746564206164647265737360601b6044820152606401610580565b610cf033610ee6565b610d3c5760405162461bcd60e51b815260206004820152601760248201527f4c6f636b20706572696f64206e6f7420657870697265640000000000000000006044820152606401610580565b6001600160a01b038216610d845760405162461bcd60e51b815260206004820152600f60248201526e496e76616c6964206164647265737360881b6044820152606401610580565b33600090815260026020526040902054811115610dda5760405162461bcd60e51b8152602060048201526014602482015273496e73756666696369656e742062616c616e636560601b6044820152606401610580565b80471015610e2a5760405162461bcd60e51b815260206004820152601d60248201527f496e73756666696369656e7420636f6e74726163742062616c616e63650000006044820152606401610580565b3360009081526002602052604081208054839290610e499084906113c9565b90915550506040516000906001600160a01b0384169083908381818185875af1925050503d8060008114610e99576040519150601f19603f3d011682016040523d82523d6000602084013e610e9e565b606091505b5050905080610ee15760405162461bcd60e51b815260206004820152600f60248201526e151c985b9cd9995c8819985a5b1959608a1b6044820152606401610580565b505050565b6001600160a01b03811660009081526001602052604081205460ff161580610f2457506001600160a01b038216600090815260026020526040902054155b15610f3157506000919050565b6001600160a01b038216600090815260036020526040902054603c610f5681836113dc565b421015949350505050565b33610f937f9016d09d72d40fdae2fd8ceac6b6234c7706214fd39c1cd1e609a0528c199300546001600160a01b031690565b6001600160a01b0316146107435760405163118cdaa760e01b8152336004820152602401610580565b7f9016d09d72d40fdae2fd8ceac6b6234c7706214fd39c1cd1e609a0528c19930080546001600160a01b031981166001600160a01b03848116918217845560405192169182907f8be0079c531659141344cd1fd0a4f28419497f9722a3daafe3b4186f6b6457e090600090a3505050565b6000807ff0c57e16840df040f15088dc2f81fe391c3923bec73e23a9662efc9c229c6a00610507565b61105e611284565b610c46816112a9565b6040805160a08101825284815260208082018581528284018581526001606085018181526000608087018181526005805483526004808952928a902098518955955193880193909355925160028701555160038601805460ff19169115159190911790555193019290925590548251868152918201859052917f6a0c7fbf44f6331867816b75328f586816c7ff60b5f3b71d7ccd1da786a93898910160405180910390a26005805490600061111b836113ef565b9190505550505050565b6040516bffffffffffffffffffffffff193360601b166020820152426034820152436054820152600090607401604051602081830303815290604052805190602001209050600060ff60f81b308360405180602001611183906112cb565b601f1982820381018352601f9091011660408190526111a59190602001611408565b6040516020818303038152906040528051906020012060405160200161120294939291906001600160f81b031994909416845260609290921b6bffffffffffffffffffffffff191660018401526015830152603582015260550190565b60408051808303601f19018152828252805160209182012033600081815280845284812080546001600160a01b0319166001600160a01b038516908117909155600194859052948120805460ff191690941790935590945091927f5a604b6e66d0b39023f01b2efa3358e53c7fcce3ae564944511d9e9503ee94ed9190a35050565b61128c6112b1565b61074357604051631afcd79f60e31b815260040160405180910390fd5b610c13611284565b60006112bb61102d565b54600160401b900460ff16919050565b605c8061143883390190565b80356001600160a01b03811681146112ee57600080fd5b919050565b60006020828403121561130557600080fd5b61130e826112d7565b9392505050565b60006020828403121561132757600080fd5b5035919050565b6000806040838503121561134157600080fd5b61134a836112d7565b946020939093013593505050565b60006020828403121561136a57600080fd5b8151801515811461130e57600080fd5b634e487b7160e01b600052601160045260246000fd5b80820281158282048414176105075761050761137a565b6000826113c457634e487b7160e01b600052601260045260246000fd5b500490565b818103818111156105075761050761137a565b808201808211156105075761050761137a565b6000600182016114015761140161137a565b5060010190565b6000825160005b81811015611429576020818601810151858301520161140f565b50600092019182525091905056fe6080604052348015600f57600080fd5b50603f80601d6000396000f3fe6080604052600080fdfea26469706673582212207599108f13dbff7d486c447bd781734a2e36d5cbf478e4fa6131937d62a9959964736f6c634300081c0033a2646970667358221220b38d63ce08d8ce1c85bcf796820599d84e85a5f209a1b838ca57454d77ec636164736f6c634300081c0033",
  "linkReferences": {},
  "deployedLinkReferences": {}
}