{
  "_format": "hh-sol-artifact-1",
  "contractName": "PrivacyMixerV1",
  "sourceName": "contracts/upgradeable/PrivacyMixerV1.sol",
  "abi": [
    {
      "inputs": [],
      "name": "InvalidInitialization",
      "type": "error"
    },
    {
      "inputs": [],
      "name": "NotInitializing",
      "type": "error"
    },
    {
      "inputs": [
        {
          "internalType": "address",
          "name": "owner",
          "type": "address"
        }
      ],
      "name": "OwnableInvalidOwner",
      "type": "error"
    },
    {
      "inputs": [
        {
          "internalType": "address",
          "name": "account",
          "type": "address"
        }
      ],
      "name": "OwnableUnauthorizedAccount",
      "type": "error"
    },
    {
      "anonymous": false,
      "inputs": [
        {
          "indexed": true,
          "internalType": "address",
          "name": "user",
          "type": "address"
        },
        {
          "indexed": true,
          "internalType": "address",
          "name": "generatedAddress",
          "type": "address"
        }
      ],
      "name": "AddressGenerated",
      "type": "event"
    },
    {
      "anonymous": false,
      "inputs": [
        {
          "indexed": true,
          "internalType": "address",
          "name": "user",
          "type": "address"
        },
        {
          "indexed": false,
          "internalType": "uint256",
          "name": "amount",
          "type": "uint256"
        },
        {
          "indexed": false,
          "internalType": "uint256",
          "name": "poolId",
          "type": "uint256"
        },
        {
          "indexed": false,
          "internalType": "uint256",
          "name": "timestamp",
          "type": "uint256"
        }
      ],
      "name": "Deposit",
      "type": "event"
    },
    {
      "anonymous": false,
      "inputs": [
        {
          "indexed": false,
          "internalType": "uint64",
          "name": "version",
          "type": "uint64"
        }
      ],
      "name": "Initialized",
      "type": "event"
    },
    {
      "anonymous": false,
      "inputs": [
        {
          "indexed": true,
          "internalType": "address",
          "name": "previousOwner",
          "type": "address"
        },
        {
          "indexed": true,
          "internalType": "address",
          "name": "newOwner",
          "type": "address"
        }
      ],
      "name": "OwnershipTransferred",
      "type": "event"
    },
    {
      "anonymous": false,
      "inputs": [
        {
          "indexed": false,
          "internalType": "address",
          "name": "account",
          "type": "address"
        }
      ],
      "name": "Paused",
      "type": "event"
    },
    {
      "anonymous": false,
      "inputs": [
        {
          "indexed": true,
          "internalType": "uint256",
          "name": "poolId",
          "type": "uint256"
        },
        {
          "indexed": false,
          "internalType": "uint256",
          "name": "lockDuration",
          "type": "uint256"
        },
        {
          "indexed": false,
          "internalType": "uint256",
          "name": "maxDeposit",
          "type": "uint256"
        }
      ],
      "name": "PoolCreated",
      "type": "event"
    },
    {
      "anonymous": false,
      "inputs": [
        {
          "indexed": false,
          "internalType": "address",
          "name": "account",
          "type": "address"
        }
      ],
      "name": "Unpaused",
      "type": "event"
    },
    {
      "inputs": [
        {
          "internalType": "address",
          "name": "",
          "type": "address"
        }
      ],
      "name": "addressGenerated",
      "outputs": [
        {
          "internalType": "bool",
          "name": "",
          "type": "bool"
        }
      ],
      "stateMutability": "view",
      "type": "function"
    },
    {
      "inputs": [
        {
          "internalType": "address",
          "name": "user",
          "type": "address"
        }
      ],
      "name": "canWithdraw",
      "outputs": [
        {
          "internalType": "bool",
          "name": "",
          "type": "bool"
        }
      ],
      "stateMutability": "view",
      "type": "function"
    },
    {
      "inputs": [
        {
          "internalType": "uint256",
          "name": "poolId",
          "type": "uint256"
        }
      ],
      "name": "deposit",
      "outputs": [],
      "stateMutability": "payable",
      "type": "function"
    },
    {
      "inputs": [
        {
          "internalType": "address",
          "name": "",
          "type": "address"
        }
      ],
      "name": "depositTimestamps",
      "outputs": [
        {
          "internalType": "uint256",
          "name": "",
          "type": "uint256"
        }
      ],
      "stateMutability": "view",
      "type": "function"
    },
    {
      "inputs": [],
      "name": "emergencyPause",
      "outputs": [],
      "stateMutability": "nonpayable",
      "type": "function"
    },
    {
      "inputs": [],
      "name": "emergencyUnpause",
      "outputs": [],
      "stateMutability": "nonpayable",
      "type": "function"
    },
    {
      "inputs": [],
      "name": "generateAddress",
      "outputs": [
        {
          "internalType": "address",
          "name": "",
          "type": "address"
        }
      ],
      "stateMutability": "nonpayable",
      "type": "function"
    },
    {
      "inputs": [],
      "name": "getMyGeneratedAddress",
      "outputs": [
        {
          "internalType": "address",
          "name": "",
          "type": "address"
        }
      ],
      "stateMutability": "view",
      "type": "function"
    },
    {
      "inputs": [
        {
          "internalType": "uint256",
          "name": "poolId",
          "type": "uint256"
        }
      ],
      "name": "getPoolInfo",
      "outputs": [
        {
          "components": [
            {
              "internalType": "uint256",
              "name": "lockDuration",
              "type": "uint256"
            },
            {
              "internalType": "uint256",
              "name": "maxDeposit",
              "type": "uint256"
            },
            {
              "internalType": "uint256",
              "name": "feeRate",
              "type": "uint256"
            },
            {
              "internalType": "bool",
              "name": "active",
              "type": "bool"
            },
            {
              "internalType": "uint256",
              "name": "totalDeposits",
              "type": "uint256"
            }
          ],
          "internalType": "struct PrivacyMixerV1.Pool",
          "name": "",
          "type": "tuple"
        }
      ],
      "stateMutability": "view",
      "type": "function"
    },
    {
      "inputs": [
        {
          "internalType": "address",
          "name": "user",
          "type": "address"
        }
      ],
      "name": "getUserDepositInfo",
      "outputs": [
        {
          "internalType": "uint256",
          "name": "depositAmount",
          "type": "uint256"
        },
        {
          "internalType": "uint256",
          "name": "depositTime",
          "type": "uint256"
        },
        {
          "internalType": "bool",
          "name": "canWithdrawNow",
          "type": "bool"
        }
      ],
      "stateMutability": "view",
      "type": "function"
    },
    {
      "inputs": [],
      "name": "initialize",
      "outputs": [],
      "stateMutability": "nonpayable",
      "type": "function"
    },
    {
      "inputs": [],
      "name": "owner",
      "outputs": [
        {
          "internalType": "address",
          "name": "",
          "type": "address"
        }
      ],
      "stateMutability": "view",
      "type": "function"
    },
    {
      "inputs": [],
      "name": "paused",
      "outputs": [
        {
          "internalType": "bool",
          "name": "",
          "type": "bool"
        }
      ],
      "stateMutability": "view",
      "type": "function"
    },
    {
      "inputs": [
        {
          "internalType": "uint256",
          "name": "",
          "type": "uint256"
        }
      ],
      "name": "pools",
      "outputs": [
        {
          "internalType": "uint256",
          "name": "lockDuration",
          "type": "uint256"
        },
        {
          "internalType": "uint256",
          "name": "maxDeposit",
          "type": "uint256"
        },
        {
          "internalType": "uint256",
          "name": "feeRate",
          "type": "uint256"
        },
        {
          "internalType": "bool",
          "name": "active",
          "type": "bool"
        },
        {
          "internalType": "uint256",
          "name": "totalDeposits",
          "type": "uint256"
        }
      ],
      "stateMutability": "view",
      "type": "function"
    },
    {
      "inputs": [],
      "name": "renounceOwnership",
      "outputs": [],
      "stateMutability": "nonpayable",
      "type": "function"
    },
    {
      "inputs": [],
      "name": "totalPools",
      "outputs": [
        {
          "internalType": "uint256",
          "name": "",
          "type": "uint256"
        }
      ],
      "stateMutability": "view",
      "type": "function"
    },
    {
      "inputs": [
        {
          "internalType": "address",
          "name": "newOwner",
          "type": "address"
        }
      ],
      "name": "transferOwnership",
      "outputs": [],
      "stateMutability": "nonpayable",
      "type": "function"
    },
    {
      "inputs": [
        {
          "internalType": "address",
          "name": "",
          "type": "address"
        }
      ],
      "name": "userDeposits",
      "outputs": [
        {
          "internalType": "uint256",
          "name": "",
          "type": "uint256"
        }
      ],
      "stateMutability": "view",
      "type": "function"
    },
    {
      "inputs": [
        {
          "internalType": "address",
          "name": "",
          "type": "address"
        }
      ],
      "name": "userToGeneratedAddress",
      "outputs": [
        {
          "internalType": "address",
          "name": "",
          "type": "address"
        }
      ],
      "stateMutability": "view",
      "type": "function"
    },
    {
      "inputs": [
        {
          "internalType": "address",
          "name": "to",
          "type": "address"
        },
        {
          "internalType": "uint256",
          "name": "amount",
          "type": "uint256"
        }
      ],
      "name": "withdraw",
      "outputs": [],
      "stateMutability": "nonpayable",
      "type": "function"
    }
  ],
  "bytecode": "0x6080604052348015600f57600080fd5b5061140c8061001f6000396000f3fe60806040526004361061011f5760003560e01c806382949221116100a0578063b6b55f2511610064578063b6b55f2514610403578063c6eba76714610416578063ee649e1514610446578063f2fde38b1461045b578063f3fef3a31461047b57600080fd5b806382949221146102c25780638da5cb5b146102f8578063ab3c7e5214610335578063ac4afa381461034b578063b3a7834d146103c657600080fd5b8063504860a0116100e7578063504860a01461023c57806351858e27146102695780635c975abb1461027e578063715018a6146102985780638129fc1c146102ad57600080fd5b80630ba36dcd1461012457806319262d3014610164578063240be944146101945780632f380b35146101c15780634a4e3bd514610225575b600080fd5b34801561013057600080fd5b5061015161013f366004611236565b60026020526000908152604090205481565b6040519081526020015b60405180910390f35b34801561017057600080fd5b5061018461017f366004611236565b61049b565b604051901515815260200161015b565b3480156101a057600080fd5b506101516101af366004611236565b60036020526000908152604090205481565b3480156101cd57600080fd5b506101e16101dc366004611258565b6104ac565b60405161015b9190600060a0820190508251825260208301516020830152604083015160408301526060830151151560608301526080830151608083015292915050565b34801561023157600080fd5b5061023a610579565b005b34801561024857600080fd5b506102516105c1565b6040516001600160a01b03909116815260200161015b565b34801561027557600080fd5b5061023a610634565b34801561028a57600080fd5b506006546101849060ff1681565b3480156102a457600080fd5b5061023a610679565b3480156102b957600080fd5b5061023a61068d565b3480156102ce57600080fd5b506102516102dd366004611236565b6000602081905290815260409020546001600160a01b031681565b34801561030457600080fd5b507f9016d09d72d40fdae2fd8ceac6b6234c7706214fd39c1cd1e609a0528c199300546001600160a01b0316610251565b34801561034157600080fd5b5061015160055481565b34801561035757600080fd5b5061039c610366366004611258565b60046020819052600091825260409091208054600182015460028301546003840154939094015491939092909160ff9091169085565b6040805195865260208601949094529284019190915215156060830152608082015260a00161015b565b3480156103d257600080fd5b506103e66103e1366004611236565b6107ca565b60408051938452602084019290925215159082015260600161015b565b61023a610411366004611258565b61085c565b34801561042257600080fd5b50610184610431366004611236565b60016020526000908152604090205460ff1681565b34801561045257600080fd5b50610251610ae6565b34801561046757600080fd5b5061023a610476366004611236565b610b4e565b34801561048757600080fd5b5061023a610496366004611271565b610b8c565b60006104a682610e29565b92915050565b6104e06040518060a00160405280600081526020016000815260200160008152602001600015158152602001600081525090565b60055482106105285760405162461bcd60e51b815260206004820152600f60248201526e125b9d985b1a59081c1bdbdb081251608a1b60448201526064015b60405180910390fd5b50600090815260046020818152604092839020835160a08101855281548152600182015492810192909252600281015493820193909352600383015460ff1615156060820152910154608082015290565b610581610ea4565b6006805460ff191690556040513381527f5db9ee0a495bf2e6ff9c91a7834c1ba4fdd244a5e8aa4e537bd38aeae4b073aa906020015b60405180910390a1565b3360009081526001602052604081205460ff166106175760405162461bcd60e51b8152602060048201526014602482015273139bc81859191c995cdcc819d95b995c985d195960621b604482015260640161051f565b50336000908152602081905260409020546001600160a01b031690565b61063c610ea4565b6006805460ff191660011790556040513381527f62e78cea01bee320cd4e420270b5ea74000d11b0c9f74754ebdbfc544b05a258906020016105b7565b610681610ea4565b61068b6000610eff565b565b6000610697610f70565b805490915060ff600160401b820416159067ffffffffffffffff166000811580156106bf5750825b905060008267ffffffffffffffff1660011480156106dc5750303b155b9050811580156106ea575080155b156107085760405163f92ee8a960e01b815260040160405180910390fd5b845467ffffffffffffffff19166001178555831561073257845460ff60401b1916600160401b1785555b61073b33610f99565b610750603c678ac7230489e80000600f610faa565b61076660f06802b5e3af16b1880000600f610faa565b61077d6105a068056bc75e2d63100000600f610faa565b83156107c357845460ff60401b19168555604051600181527fc7f505b2f371ae2175ee4913f4499e1f2633a7b5936321eed1cdaeb6115181d29060200160405180910390a15b5050505050565b6001600160a01b038116600081815260026020908152604080832054600390925280832054905163019262d360e41b81526004810194909452909290919030906319262d3090602401602060405180830381865afa158015610830573d6000803e3d6000fd5b505050506040513d601f19601f82011682018060405250810190610854919061129b565b929491935050565b60065460ff16156108a45760405162461bcd60e51b815260206004820152601260248201527110dbdb9d1c9858dd081a5cc81c185d5cd95960721b604482015260640161051f565b60055481106108e75760405162461bcd60e51b815260206004820152600f60248201526e125b9d985b1a59081c1bdbdb081251608a1b604482015260640161051f565b60008181526004602052604090206003015460ff1661093a5760405162461bcd60e51b815260206004820152600f60248201526e506f6f6c206e6f742061637469766560881b604482015260640161051f565b67016345785d8a00003410156109925760405162461bcd60e51b815260206004820152601760248201527f4d696e696d756d206465706f73697420302e3120455448000000000000000000604482015260640161051f565b6000818152600460205260409020600101543411156109e95760405162461bcd60e51b8152602060048201526013602482015272115e18d959591cc81b585e0819195c1bdcda5d606a1b604482015260640161051f565b3360009081526001602052604090205460ff16610a0857610a08611068565b6000818152600460205260408120600201546103e890610a2890346112d3565b610a3291906112ea565b90506000610a40823461130c565b33600090815260026020526040812080549293508392909190610a6490849061131f565b90915550503360009081526003602090815260408083204290558583526004918290528220018054839290610a9a90849061131f565b909155505060408051828152602081018590524281830152905133917f36af321ec8d3c75236829c5317affd40ddb308863a1236d2d277a4025cccee1e919081900360600190a2505050565b3360009081526001602052604081205460ff1615610b465760405162461bcd60e51b815260206004820152601960248201527f4164647265737320616c72656164792067656e65726174656400000000000000604482015260640161051f565b610617611068565b610b56610ea4565b6001600160a01b038116610b8057604051631e4fbdf760e01b81526000600482015260240161051f565b610b8981610eff565b50565b60065460ff1615610bd45760405162461bcd60e51b815260206004820152601260248201527110dbdb9d1c9858dd081a5cc81c185d5cd95960721b604482015260640161051f565b3360009081526001602052604090205460ff16610c2a5760405162461bcd60e51b81526020600482015260146024820152734e6f2067656e657261746564206164647265737360601b604482015260640161051f565b610c3333610e29565b610c7f5760405162461bcd60e51b815260206004820152601760248201527f4c6f636b20706572696f64206e6f742065787069726564000000000000000000604482015260640161051f565b6001600160a01b038216610cc75760405162461bcd60e51b815260206004820152600f60248201526e496e76616c6964206164647265737360881b604482015260640161051f565b33600090815260026020526040902054811115610d1d5760405162461bcd60e51b8152602060048201526014602482015273496e73756666696369656e742062616c616e636560601b604482015260640161051f565b80471015610d6d5760405162461bcd60e51b815260206004820152601d60248201527f496e73756666696369656e7420636f6e74726163742062616c616e6365000000604482015260640161051f565b3360009081526002602052604081208054839290610d8c90849061130c565b90915550506040516000906001600160a01b0384169083908381818185875af1925050503d8060008114610ddc576040519150601f19603f3d011682016040523d82523d6000602084013e610de1565b606091505b5050905080610e245760405162461bcd60e51b815260206004820152600f60248201526e151c985b9cd9995c8819985a5b1959608a1b604482015260640161051f565b505050565b6001600160a01b03811660009081526001602052604081205460ff161580610e6757506001600160a01b038216600090815260026020526040902054155b15610e7457506000919050565b6001600160a01b038216600090815260036020526040902054603c610e99818361131f565b421015949350505050565b33610ed67f9016d09d72d40fdae2fd8ceac6b6234c7706214fd39c1cd1e609a0528c199300546001600160a01b031690565b6001600160a01b03161461068b5760405163118cdaa760e01b815233600482015260240161051f565b7f9016d09d72d40fdae2fd8ceac6b6234c7706214fd39c1cd1e609a0528c19930080546001600160a01b031981166001600160a01b03848116918217845560405192169182907f8be0079c531659141344cd1fd0a4f28419497f9722a3daafe3b4186f6b6457e090600090a3505050565b6000807ff0c57e16840df040f15088dc2f81fe391c3923bec73e23a9662efc9c229c6a006104a6565b610fa16111c7565b610b89816111ec565b6040805160a08101825284815260208082018581528284018581526001606085018181526000608087018181526005805483526004808952928a902098518955955193880193909355925160028701555160038601805460ff19169115159190911790555193019290925590548251868152918201859052917f6a0c7fbf44f6331867816b75328f586816c7ff60b5f3b71d7ccd1da786a93898910160405180910390a26005805490600061105e83611332565b9190505550505050565b6040516bffffffffffffffffffffffff193360601b166020820152426034820152436054820152600090607401604051602081830303815290604052805190602001209050600060ff60f81b3083604051806020016110c69061120e565b601f1982820381018352601f9091011660408190526110e8919060200161134b565b6040516020818303038152906040528051906020012060405160200161114594939291906001600160f81b031994909416845260609290921b6bffffffffffffffffffffffff191660018401526015830152603582015260550190565b60408051808303601f19018152828252805160209182012033600081815280845284812080546001600160a01b0319166001600160a01b038516908117909155600194859052948120805460ff191690941790935590945091927f5a604b6e66d0b39023f01b2efa3358e53c7fcce3ae564944511d9e9503ee94ed9190a35050565b6111cf6111f4565b61068b57604051631afcd79f60e31b815260040160405180910390fd5b610b566111c7565b60006111fe610f70565b54600160401b900460ff16919050565b605c8061137b83390190565b80356001600160a01b038116811461123157600080fd5b919050565b60006020828403121561124857600080fd5b6112518261121a565b9392505050565b60006020828403121561126a57600080fd5b5035919050565b6000806040838503121561128457600080fd5b61128d8361121a565b946020939093013593505050565b6000602082840312156112ad57600080fd5b8151801515811461125157600080fd5b634e487b7160e01b600052601160045260246000fd5b80820281158282048414176104a6576104a66112bd565b60008261130757634e487b7160e01b600052601260045260246000fd5b500490565b818103818111156104a6576104a66112bd565b808201808211156104a6576104a66112bd565b600060018201611344576113446112bd565b5060010190565b6000825160005b8181101561136c5760208186018101518583015201611352565b50600092019182525091905056fe6080604052348015600f57600080fd5b50603f80601d6000396000f3fe6080604052600080fdfea2646970667358221220b12b64e593e0a520a2f37a653a24bb8171d7c7aa0cc7f64369219744634ad92e64736f6c634300081c0033a26469706673582212200300d6551afb525568e5a5dc1c2c0e41aaba3f5747a7fdf9c91c55dd2008af0b64736f6c634300081c0033",
  "linkReferences": {},
  "deployedLinkReferences": {}
}